{
  "_format": "hh-sol-artifact-1",
  "contractName": "SBSDraftTokenSeasonOne",
  "sourceName": "contracts/SBSDraftTokenSeasonOne.sol",
  "abi": [
    {
      "inputs": [],
      "stateMutability": "nonpayable",
      "type": "constructor"
    },
    {
      "anonymous": false,
      "inputs": [
        {
          "indexed": true,
          "internalType": "address",
          "name": "owner",
          "type": "address"
        },
        {
          "indexed": true,
          "internalType": "address",
          "name": "approved",
          "type": "address"
        },
        {
          "indexed": true,
          "internalType": "uint256",
          "name": "tokenId",
          "type": "uint256"
        }
      ],
      "name": "Approval",
      "type": "event"
    },
    {
      "anonymous": false,
      "inputs": [
        {
          "indexed": true,
          "internalType": "address",
          "name": "owner",
          "type": "address"
        },
        {
          "indexed": true,
          "internalType": "address",
          "name": "operator",
          "type": "address"
        },
        {
          "indexed": false,
          "internalType": "bool",
          "name": "approved",
          "type": "bool"
        }
      ],
      "name": "ApprovalForAll",
      "type": "event"
    },
    {
      "anonymous": false,
      "inputs": [
        {
          "indexed": true,
          "internalType": "address",
          "name": "previousOwner",
          "type": "address"
        },
        {
          "indexed": true,
          "internalType": "address",
          "name": "newOwner",
          "type": "address"
        }
      ],
      "name": "OwnershipTransferred",
      "type": "event"
    },
    {
      "anonymous": false,
      "inputs": [
        {
          "indexed": false,
          "internalType": "address",
          "name": "account",
          "type": "address"
        }
      ],
      "name": "Paused",
      "type": "event"
    },
    {
      "anonymous": false,
      "inputs": [
        {
          "indexed": true,
          "internalType": "address",
          "name": "from",
          "type": "address"
        },
        {
          "indexed": true,
          "internalType": "address",
          "name": "to",
          "type": "address"
        },
        {
          "indexed": true,
          "internalType": "uint256",
          "name": "tokenId",
          "type": "uint256"
        }
      ],
      "name": "Transfer",
      "type": "event"
    },
    {
      "anonymous": false,
      "inputs": [
        {
          "indexed": false,
          "internalType": "address",
          "name": "account",
          "type": "address"
        }
      ],
      "name": "Unpaused",
      "type": "event"
    },
    {
      "inputs": [],
      "name": "RESERVED_TOKENS",
      "outputs": [
        {
          "internalType": "uint256",
          "name": "",
          "type": "uint256"
        }
      ],
      "stateMutability": "view",
      "type": "function"
    },
    {
      "inputs": [],
      "name": "SPOILEDBANANASOCIETY_PROVENANCE",
      "outputs": [
        {
          "internalType": "string",
          "name": "",
          "type": "string"
        }
      ],
      "stateMutability": "view",
      "type": "function"
    },
    {
      "inputs": [],
      "name": "TOKEN_PRICE",
      "outputs": [
        {
          "internalType": "uint256",
          "name": "",
          "type": "uint256"
        }
      ],
      "stateMutability": "view",
      "type": "function"
    },
    {
      "inputs": [
        {
          "internalType": "address",
          "name": "to",
          "type": "address"
        },
        {
          "internalType": "uint256",
          "name": "tokenId",
          "type": "uint256"
        }
      ],
      "name": "approve",
      "outputs": [],
      "stateMutability": "nonpayable",
      "type": "function"
    },
    {
      "inputs": [
        {
          "internalType": "address",
          "name": "owner",
          "type": "address"
        }
      ],
      "name": "balanceOf",
      "outputs": [
        {
          "internalType": "uint256",
          "name": "",
          "type": "uint256"
        }
      ],
      "stateMutability": "view",
      "type": "function"
    },
    {
      "inputs": [
        {
          "internalType": "uint256",
          "name": "tokenId",
          "type": "uint256"
        }
      ],
      "name": "burn",
      "outputs": [],
      "stateMutability": "nonpayable",
      "type": "function"
    },
    {
      "inputs": [],
      "name": "flipMintState",
      "outputs": [],
      "stateMutability": "nonpayable",
      "type": "function"
    },
    {
      "inputs": [
        {
          "internalType": "uint256",
          "name": "tokenId",
          "type": "uint256"
        }
      ],
      "name": "getApproved",
      "outputs": [
        {
          "internalType": "address",
          "name": "",
          "type": "address"
        }
      ],
      "stateMutability": "view",
      "type": "function"
    },
    {
      "inputs": [
        {
          "internalType": "address",
          "name": "owner",
          "type": "address"
        },
        {
          "internalType": "address",
          "name": "operator",
          "type": "address"
        }
      ],
      "name": "isApprovedForAll",
      "outputs": [
        {
          "internalType": "bool",
          "name": "",
          "type": "bool"
        }
      ],
      "stateMutability": "view",
      "type": "function"
    },
    {
      "inputs": [
        {
          "internalType": "uint256",
          "name": "numberOfTokens",
          "type": "uint256"
        }
      ],
      "name": "mint",
      "outputs": [],
      "stateMutability": "payable",
      "type": "function"
    },
    {
      "inputs": [],
      "name": "mintIsActive",
      "outputs": [
        {
          "internalType": "bool",
          "name": "",
          "type": "bool"
        }
      ],
      "stateMutability": "view",
      "type": "function"
    },
    {
      "inputs": [],
      "name": "name",
      "outputs": [
        {
          "internalType": "string",
          "name": "",
          "type": "string"
        }
      ],
      "stateMutability": "view",
      "type": "function"
    },
    {
      "inputs": [],
      "name": "numTokensBurned",
      "outputs": [
        {
          "internalType": "uint256",
          "name": "",
          "type": "uint256"
        }
      ],
      "stateMutability": "view",
      "type": "function"
    },
    {
      "inputs": [],
      "name": "numTokensMinted",
      "outputs": [
        {
          "internalType": "uint256",
          "name": "",
          "type": "uint256"
        }
      ],
      "stateMutability": "view",
      "type": "function"
    },
    {
      "inputs": [],
      "name": "owner",
      "outputs": [
        {
          "internalType": "address",
          "name": "",
          "type": "address"
        }
      ],
      "stateMutability": "view",
      "type": "function"
    },
    {
      "inputs": [
        {
          "internalType": "uint256",
          "name": "tokenId",
          "type": "uint256"
        }
      ],
      "name": "ownerOf",
      "outputs": [
        {
          "internalType": "address",
          "name": "",
          "type": "address"
        }
      ],
      "stateMutability": "view",
      "type": "function"
    },
    {
      "inputs": [],
      "name": "paused",
      "outputs": [
        {
          "internalType": "bool",
          "name": "",
          "type": "bool"
        }
      ],
      "stateMutability": "view",
      "type": "function"
    },
    {
      "inputs": [],
      "name": "renounceOwnership",
      "outputs": [],
      "stateMutability": "nonpayable",
      "type": "function"
    },
    {
      "inputs": [
        {
          "internalType": "uint256",
          "name": "numberOfTokens",
          "type": "uint256"
        },
        {
          "internalType": "address",
          "name": "recipientAddress",
          "type": "address"
        }
      ],
      "name": "reserveTokens",
      "outputs": [],
      "stateMutability": "nonpayable",
      "type": "function"
    },
    {
      "inputs": [
        {
          "internalType": "address",
          "name": "from",
          "type": "address"
        },
        {
          "internalType": "address",
          "name": "to",
          "type": "address"
        },
        {
          "internalType": "uint256",
          "name": "tokenId",
          "type": "uint256"
        }
      ],
      "name": "safeTransferFrom",
      "outputs": [],
      "stateMutability": "nonpayable",
      "type": "function"
    },
    {
      "inputs": [
        {
          "internalType": "address",
          "name": "from",
          "type": "address"
        },
        {
          "internalType": "address",
          "name": "to",
          "type": "address"
        },
        {
          "internalType": "uint256",
          "name": "tokenId",
          "type": "uint256"
        },
        {
          "internalType": "bytes",
          "name": "data",
          "type": "bytes"
        }
      ],
      "name": "safeTransferFrom",
      "outputs": [],
      "stateMutability": "nonpayable",
      "type": "function"
    },
    {
      "inputs": [
        {
          "internalType": "address",
          "name": "operator",
          "type": "address"
        },
        {
          "internalType": "bool",
          "name": "approved",
          "type": "bool"
        }
      ],
      "name": "setApprovalForAll",
      "outputs": [],
      "stateMutability": "nonpayable",
      "type": "function"
    },
    {
      "inputs": [
        {
          "internalType": "string",
          "name": "uri",
          "type": "string"
        }
      ],
      "name": "setBaseURI",
      "outputs": [],
      "stateMutability": "nonpayable",
      "type": "function"
    },
    {
      "inputs": [
        {
          "internalType": "bool",
          "name": "_setPaused",
          "type": "bool"
        }
      ],
      "name": "setPaused",
      "outputs": [],
      "stateMutability": "nonpayable",
      "type": "function"
    },
    {
      "inputs": [
        {
          "internalType": "string",
          "name": "provenanceHash",
          "type": "string"
        }
      ],
      "name": "setProvenanceHash",
      "outputs": [],
      "stateMutability": "nonpayable",
      "type": "function"
    },
    {
      "inputs": [
        {
          "internalType": "bytes4",
          "name": "interfaceId",
          "type": "bytes4"
        }
      ],
      "name": "supportsInterface",
      "outputs": [
        {
          "internalType": "bool",
          "name": "",
          "type": "bool"
        }
      ],
      "stateMutability": "view",
      "type": "function"
    },
    {
      "inputs": [],
      "name": "symbol",
      "outputs": [
        {
          "internalType": "string",
          "name": "",
          "type": "string"
        }
      ],
      "stateMutability": "view",
      "type": "function"
    },
    {
      "inputs": [
        {
          "internalType": "uint256",
          "name": "tokenId",
          "type": "uint256"
        }
      ],
      "name": "tokenURI",
      "outputs": [
        {
          "internalType": "string",
          "name": "",
          "type": "string"
        }
      ],
      "stateMutability": "view",
      "type": "function"
    },
    {
      "inputs": [],
      "name": "totalSupply",
      "outputs": [
        {
          "internalType": "uint256",
          "name": "",
          "type": "uint256"
        }
      ],
      "stateMutability": "view",
      "type": "function"
    },
    {
      "inputs": [
        {
          "internalType": "address",
          "name": "from",
          "type": "address"
        },
        {
          "internalType": "address",
          "name": "to",
          "type": "address"
        },
        {
          "internalType": "uint256",
          "name": "tokenId",
          "type": "uint256"
        }
      ],
      "name": "transferFrom",
      "outputs": [],
      "stateMutability": "nonpayable",
      "type": "function"
    },
    {
      "inputs": [
        {
          "internalType": "address",
          "name": "newOwner",
          "type": "address"
        }
      ],
      "name": "transferOwnership",
      "outputs": [],
      "stateMutability": "nonpayable",
      "type": "function"
    },
    {
      "inputs": [],
      "name": "withdraw",
      "outputs": [],
      "stateMutability": "nonpayable",
      "type": "function"
    }
  ],
  "bytecode": "0x608060405260405180602001604052806000815250600890816200002491906200047b565b506000600a556000600b556000600c60006101000a81548160ff0219169083151502179055503480156200005757600080fd5b506040518060400160405280601981526020017f42616e616e6120426573742042616c6c20536561736f6e2031000000000000008152506040518060400160405280600381526020017f42424200000000000000000000000000000000000000000000000000000000008152508160009081620000d591906200047b565b508060019081620000e791906200047b565b5050506200010a620000fe6200013360201b60201c565b6200013b60201b60201c565b6000600660146101000a81548160ff021916908315150217905550600160078190555062000562565b600033905090565b6000600660009054906101000a900473ffffffffffffffffffffffffffffffffffffffff16905081600660006101000a81548173ffffffffffffffffffffffffffffffffffffffff021916908373ffffffffffffffffffffffffffffffffffffffff1602179055508173ffffffffffffffffffffffffffffffffffffffff168173ffffffffffffffffffffffffffffffffffffffff167f8be0079c531659141344cd1fd0a4f28419497f9722a3daafe3b4186f6b6457e060405160405180910390a35050565b600081519050919050565b7f4e487b7100000000000000000000000000000000000000000000000000000000600052604160045260246000fd5b7f4e487b7100000000000000000000000000000000000000000000000000000000600052602260045260246000fd5b600060028204905060018216806200028357607f821691505b6020821081036200029957620002986200023b565b5b50919050565b60008190508160005260206000209050919050565b60006020601f8301049050919050565b600082821b905092915050565b600060088302620003037fffffffffffffffffffffffffffffffffffffffffffffffffffffffffffffffff82620002c4565b6200030f8683620002c4565b95508019841693508086168417925050509392505050565b6000819050919050565b6000819050919050565b60006200035c62000356620003508462000327565b62000331565b62000327565b9050919050565b6000819050919050565b62000378836200033b565b62000390620003878262000363565b848454620002d1565b825550505050565b600090565b620003a762000398565b620003b48184846200036d565b505050565b5b81811015620003dc57620003d06000826200039d565b600181019050620003ba565b5050565b601f8211156200042b57620003f5816200029f565b6200040084620002b4565b8101602085101562000410578190505b620004286200041f85620002b4565b830182620003b9565b50505b505050565b600082821c905092915050565b6000620004506000198460080262000430565b1980831691505092915050565b60006200046b83836200043d565b9150826002028217905092915050565b620004868262000201565b67ffffffffffffffff811115620004a257620004a16200020c565b5b620004ae82546200026a565b620004bb828285620003e0565b600060209050601f831160018114620004f35760008415620004de578287015190505b620004ea85826200045d565b8655506200055a565b601f19841662000503866200029f565b60005b828110156200052d5784890151825560018201915060208501945060208101905062000506565b868310156200054d578489015162000549601f8916826200043d565b8355505b6001600288020188555050505b505050505050565b613ce180620005726000396000f3fe6080604052600436106101e35760003560e01c80635c975abb11610102578063a0712d6811610095578063d2d8cb6711610064578063d2d8cb6714610697578063daefe6d2146106c2578063e985e9c5146106ed578063f2fde38b1461072a576101e3565b8063a0712d68146105ec578063a22cb46514610608578063b88d4fde14610631578063c87b56dd1461065a576101e3565b8063715018a6116100d1578063715018a6146105545780637b51715d1461056b5780638da5cb5b1461059657806395d89b41146105c1576101e3565b80635c975abb146104845780636352211e146104af57806368fc68c7146104ec57806370a0823114610517576101e3565b80633ccfd60b1161017a578063471a429411610149578063471a4294146103f057806353d4c7751461041b57806355f804b31461044457806359c74f291461046d576101e3565b80633ccfd60b1461035c5780634230baee1461037357806342842e0e1461039e57806342966c68146103c7576101e3565b806310969523116101b657806310969523146102b657806316c38b3c146102df57806318160ddd1461030857806323b872dd14610333576101e3565b806301ffc9a7146101e857806306fdde0314610225578063081812fc14610250578063095ea7b31461028d575b600080fd5b3480156101f457600080fd5b5061020f600480360381019061020a9190612605565b610753565b60405161021c919061264d565b60405180910390f35b34801561023157600080fd5b5061023a610835565b60405161024791906126f8565b60405180910390f35b34801561025c57600080fd5b5061027760048036038101906102729190612750565b6108c7565b60405161028491906127be565b60405180910390f35b34801561029957600080fd5b506102b460048036038101906102af9190612805565b61090d565b005b3480156102c257600080fd5b506102dd60048036038101906102d8919061297a565b610a24565b005b3480156102eb57600080fd5b50610306600480360381019061030191906129ef565b610a3f565b005b34801561031457600080fd5b5061031d610a65565b60405161032a9190612a2b565b60405180910390f35b34801561033f57600080fd5b5061035a60048036038101906103559190612a46565b610a7c565b005b34801561036857600080fd5b50610371610adc565b005b34801561037f57600080fd5b50610388610afd565b6040516103959190612a2b565b60405180910390f35b3480156103aa57600080fd5b506103c560048036038101906103c09190612a46565b610b03565b005b3480156103d357600080fd5b506103ee60048036038101906103e99190612750565b610b23565b005b3480156103fc57600080fd5b50610405610b97565b604051610412919061264d565b60405180910390f35b34801561042757600080fd5b50610442600480360381019061043d9190612a99565b610baa565b005b34801561045057600080fd5b5061046b6004803603810190610466919061297a565b610c0a565b005b34801561047957600080fd5b50610482610c25565b005b34801561049057600080fd5b50610499610c59565b6040516104a6919061264d565b60405180910390f35b3480156104bb57600080fd5b506104d660048036038101906104d19190612750565b610c70565b6040516104e391906127be565b60405180910390f35b3480156104f857600080fd5b50610501610cf6565b60405161050e9190612a2b565b60405180910390f35b34801561052357600080fd5b5061053e60048036038101906105399190612ad9565b610cfb565b60405161054b9190612a2b565b60405180910390f35b34801561056057600080fd5b50610569610db2565b005b34801561057757600080fd5b50610580610dc6565b60405161058d9190612a2b565b60405180910390f35b3480156105a257600080fd5b506105ab610dcc565b6040516105b891906127be565b60405180910390f35b3480156105cd57600080fd5b506105d6610df6565b6040516105e391906126f8565b60405180910390f35b61060660048036038101906106019190612750565b610e88565b005b34801561061457600080fd5b5061062f600480360381019061062a9190612b06565b610f88565b005b34801561063d57600080fd5b5061065860048036038101906106539190612be7565b610f9e565b005b34801561066657600080fd5b50610681600480360381019061067c9190612750565b611000565b60405161068e91906126f8565b60405180910390f35b3480156106a357600080fd5b506106ac611068565b6040516106b99190612a2b565b60405180910390f35b3480156106ce57600080fd5b506106d7611073565b6040516106e491906126f8565b60405180910390f35b3480156106f957600080fd5b50610714600480360381019061070f9190612c6a565b611101565b604051610721919061264d565b60405180910390f35b34801561073657600080fd5b50610751600480360381019061074c9190612ad9565b611195565b005b60007f80ac58cd000000000000000000000000000000000000000000000000000000007bffffffffffffffffffffffffffffffffffffffffffffffffffffffff1916827bffffffffffffffffffffffffffffffffffffffffffffffffffffffff1916148061081e57507f5b5e139f000000000000000000000000000000000000000000000000000000007bffffffffffffffffffffffffffffffffffffffffffffffffffffffff1916827bffffffffffffffffffffffffffffffffffffffffffffffffffffffff1916145b8061082e575061082d82611218565b5b9050919050565b60606000805461084490612cd9565b80601f016020809104026020016040519081016040528092919081815260200182805461087090612cd9565b80156108bd5780601f10610892576101008083540402835291602001916108bd565b820191906000526020600020905b8154815290600101906020018083116108a057829003601f168201915b5050505050905090565b60006108d282611282565b6004600083815260200190815260200160002060009054906101000a900473ffffffffffffffffffffffffffffffffffffffff169050919050565b600061091882610c70565b90508073ffffffffffffffffffffffffffffffffffffffff168373ffffffffffffffffffffffffffffffffffffffff1603610988576040517f08c379a000000000000000000000000000000000000000000000000000000000815260040161097f90612d7c565b60405180910390fd5b8073ffffffffffffffffffffffffffffffffffffffff166109a76112cd565b73ffffffffffffffffffffffffffffffffffffffff1614806109d657506109d5816109d06112cd565b611101565b5b610a15576040517f08c379a0000000000000000000000000000000000000000000000000000000008152600401610a0c90612e0e565b60405180910390fd5b610a1f83836112d5565b505050565b610a2c61138e565b8060089081610a3b9190612fda565b5050565b610a4761138e565b80610a5957610a5461140c565b610a62565b610a6161146f565b5b50565b6000600b54600a54610a7791906130db565b905090565b610a8d610a876112cd565b826114d2565b610acc576040517f08c379a0000000000000000000000000000000000000000000000000000000008152600401610ac390613181565b60405180910390fd5b610ad7838383611567565b505050565b610ae461138e565b6000479050610afa610af4610dcc565b82611860565b50565b600a5481565b610b1e83838360405180602001604052806000815250610f9e565b505050565b610b34610b2e6112cd565b826114d2565b610b73576040517f08c379a0000000000000000000000000000000000000000000000000000000008152600401610b6a90613213565b60405180910390fd5b610b7c81611954565b600b6000815480929190610b8f90613233565b919050555050565b600c60009054906101000a900460ff1681565b610bb261138e565b60005b82811015610c05576000600a549050600a6000815480929190610bd790613233565b9190505550610be63382611aa2565b610bf1338483610a7c565b508080610bfd90613233565b915050610bb5565b505050565b610c1261138e565b8060099081610c219190612fda565b5050565b610c2d61138e565b600c60009054906101000a900460ff1615600c60006101000a81548160ff021916908315150217905550565b6000600660149054906101000a900460ff16905090565b600080610c7c83611ac0565b9050600073ffffffffffffffffffffffffffffffffffffffff168173ffffffffffffffffffffffffffffffffffffffff1603610ced576040517f08c379a0000000000000000000000000000000000000000000000000000000008152600401610ce4906132c7565b60405180910390fd5b80915050919050565b601481565b60008073ffffffffffffffffffffffffffffffffffffffff168273ffffffffffffffffffffffffffffffffffffffff1603610d6b576040517f08c379a0000000000000000000000000000000000000000000000000000000008152600401610d6290613359565b60405180910390fd5b600360008373ffffffffffffffffffffffffffffffffffffffff1673ffffffffffffffffffffffffffffffffffffffff168152602001908152602001600020549050919050565b610dba61138e565b610dc46000611afd565b565b600b5481565b6000600660009054906101000a900473ffffffffffffffffffffffffffffffffffffffff16905090565b606060018054610e0590612cd9565b80601f0160208091040260200160405190810160405280929190818152602001828054610e3190612cd9565b8015610e7e5780601f10610e5357610100808354040283529160200191610e7e565b820191906000526020600020905b815481529060010190602001808311610e6157829003601f168201915b5050505050905090565b610e90611bc3565b600c60009054906101000a900460ff16610edf576040517f08c379a0000000000000000000000000000000000000000000000000000000008152600401610ed6906133c5565b60405180910390fd5b348166470de4df820000610ef391906133e5565b1115610f34576040517f08c379a0000000000000000000000000000000000000000000000000000000008152600401610f2b90613499565b60405180910390fd5b60005b81811015610f7c576000600a549050600a6000815480929190610f5990613233565b9190505550610f683382611aa2565b508080610f7490613233565b915050610f37565b50610f85611c12565b50565b610f9a610f936112cd565b8383611c1c565b5050565b610faf610fa96112cd565b836114d2565b610fee576040517f08c379a0000000000000000000000000000000000000000000000000000000008152600401610fe590613181565b60405180910390fd5b610ffa84848484611d88565b50505050565b606061100b82611282565b6000611015611de4565b905060008151116110355760405180602001604052806000815250611060565b8061103f84611e76565b6040516020016110509291906134f5565b6040516020818303038152906040525b915050919050565b66470de4df82000081565b6008805461108090612cd9565b80601f01602080910402602001604051908101604052809291908181526020018280546110ac90612cd9565b80156110f95780601f106110ce576101008083540402835291602001916110f9565b820191906000526020600020905b8154815290600101906020018083116110dc57829003601f168201915b505050505081565b6000600560008473ffffffffffffffffffffffffffffffffffffffff1673ffffffffffffffffffffffffffffffffffffffff16815260200190815260200160002060008373ffffffffffffffffffffffffffffffffffffffff1673ffffffffffffffffffffffffffffffffffffffff16815260200190815260200160002060009054906101000a900460ff16905092915050565b61119d61138e565b600073ffffffffffffffffffffffffffffffffffffffff168173ffffffffffffffffffffffffffffffffffffffff160361120c576040517f08c379a00000000000000000000000000000000000000000000000000000000081526004016112039061358b565b60405180910390fd5b61121581611afd565b50565b60007f01ffc9a7000000000000000000000000000000000000000000000000000000007bffffffffffffffffffffffffffffffffffffffffffffffffffffffff1916827bffffffffffffffffffffffffffffffffffffffffffffffffffffffff1916149050919050565b61128b81611f44565b6112ca576040517f08c379a00000000000000000000000000000000000000000000000000000000081526004016112c1906132c7565b60405180910390fd5b50565b600033905090565b816004600083815260200190815260200160002060006101000a81548173ffffffffffffffffffffffffffffffffffffffff021916908373ffffffffffffffffffffffffffffffffffffffff160217905550808273ffffffffffffffffffffffffffffffffffffffff1661134883610c70565b73ffffffffffffffffffffffffffffffffffffffff167f8c5be1e5ebec7d5bd14f71427d1e84f3dd0314c0f7b2291e5b200ac8c7c3b92560405160405180910390a45050565b6113966112cd565b73ffffffffffffffffffffffffffffffffffffffff166113b4610dcc565b73ffffffffffffffffffffffffffffffffffffffff161461140a576040517f08c379a0000000000000000000000000000000000000000000000000000000008152600401611401906135f7565b60405180910390fd5b565b611414611f85565b6000600660146101000a81548160ff0219169083151502179055507f5db9ee0a495bf2e6ff9c91a7834c1ba4fdd244a5e8aa4e537bd38aeae4b073aa6114586112cd565b60405161146591906127be565b60405180910390a1565b611477611fce565b6001600660146101000a81548160ff0219169083151502179055507f62e78cea01bee320cd4e420270b5ea74000d11b0c9f74754ebdbfc544b05a2586114bb6112cd565b6040516114c891906127be565b60405180910390a1565b6000806114de83610c70565b90508073ffffffffffffffffffffffffffffffffffffffff168473ffffffffffffffffffffffffffffffffffffffff161480611520575061151f8185611101565b5b8061155e57508373ffffffffffffffffffffffffffffffffffffffff16611546846108c7565b73ffffffffffffffffffffffffffffffffffffffff16145b91505092915050565b8273ffffffffffffffffffffffffffffffffffffffff1661158782610c70565b73ffffffffffffffffffffffffffffffffffffffff16146115dd576040517f08c379a00000000000000000000000000000000000000000000000000000000081526004016115d490613689565b60405180910390fd5b600073ffffffffffffffffffffffffffffffffffffffff168273ffffffffffffffffffffffffffffffffffffffff160361164c576040517f08c379a00000000000000000000000000000000000000000000000000000000081526004016116439061371b565b60405180910390fd5b6116598383836001612018565b8273ffffffffffffffffffffffffffffffffffffffff1661167982610c70565b73ffffffffffffffffffffffffffffffffffffffff16146116cf576040517f08c379a00000000000000000000000000000000000000000000000000000000081526004016116c690613689565b60405180910390fd5b6004600082815260200190815260200160002060006101000a81549073ffffffffffffffffffffffffffffffffffffffff02191690556001600360008573ffffffffffffffffffffffffffffffffffffffff1673ffffffffffffffffffffffffffffffffffffffff168152602001908152602001600020600082825403925050819055506001600360008473ffffffffffffffffffffffffffffffffffffffff1673ffffffffffffffffffffffffffffffffffffffff16815260200190815260200160002060008282540192505081905550816002600083815260200190815260200160002060006101000a81548173ffffffffffffffffffffffffffffffffffffffff021916908373ffffffffffffffffffffffffffffffffffffffff160217905550808273ffffffffffffffffffffffffffffffffffffffff168473ffffffffffffffffffffffffffffffffffffffff167fddf252ad1be2c89b69c2b068fc378daa952ba7f163c4a11628f55a4df523b3ef60405160405180910390a461185b838383600161201e565b505050565b804710156118a3576040517f08c379a000000000000000000000000000000000000000000000000000000000815260040161189a90613787565b60405180910390fd5b60008273ffffffffffffffffffffffffffffffffffffffff16826040516118c9906137d8565b60006040518083038185875af1925050503d8060008114611906576040519150601f19603f3d011682016040523d82523d6000602084013e61190b565b606091505b505090508061194f576040517f08c379a00000000000000000000000000000000000000000000000000000000081526004016119469061385f565b60405180910390fd5b505050565b600061195f82610c70565b905061196f816000846001612018565b61197882610c70565b90506004600083815260200190815260200160002060006101000a81549073ffffffffffffffffffffffffffffffffffffffff02191690556001600360008373ffffffffffffffffffffffffffffffffffffffff1673ffffffffffffffffffffffffffffffffffffffff168152602001908152602001600020600082825403925050819055506002600083815260200190815260200160002060006101000a81549073ffffffffffffffffffffffffffffffffffffffff021916905581600073ffffffffffffffffffffffffffffffffffffffff168273ffffffffffffffffffffffffffffffffffffffff167fddf252ad1be2c89b69c2b068fc378daa952ba7f163c4a11628f55a4df523b3ef60405160405180910390a4611a9e81600084600161201e565b5050565b611abc828260405180602001604052806000815250612024565b5050565b60006002600083815260200190815260200160002060009054906101000a900473ffffffffffffffffffffffffffffffffffffffff169050919050565b6000600660009054906101000a900473ffffffffffffffffffffffffffffffffffffffff16905081600660006101000a81548173ffffffffffffffffffffffffffffffffffffffff021916908373ffffffffffffffffffffffffffffffffffffffff1602179055508173ffffffffffffffffffffffffffffffffffffffff168173ffffffffffffffffffffffffffffffffffffffff167f8be0079c531659141344cd1fd0a4f28419497f9722a3daafe3b4186f6b6457e060405160405180910390a35050565b600260075403611c08576040517f08c379a0000000000000000000000000000000000000000000000000000000008152600401611bff906138cb565b60405180910390fd5b6002600781905550565b6001600781905550565b8173ffffffffffffffffffffffffffffffffffffffff168373ffffffffffffffffffffffffffffffffffffffff1603611c8a576040517f08c379a0000000000000000000000000000000000000000000000000000000008152600401611c8190613937565b60405180910390fd5b80600560008573ffffffffffffffffffffffffffffffffffffffff1673ffffffffffffffffffffffffffffffffffffffff16815260200190815260200160002060008473ffffffffffffffffffffffffffffffffffffffff1673ffffffffffffffffffffffffffffffffffffffff16815260200190815260200160002060006101000a81548160ff0219169083151502179055508173ffffffffffffffffffffffffffffffffffffffff168373ffffffffffffffffffffffffffffffffffffffff167f17307eab39ab6107e8899845ad3d59bd9653f200f220920489ca2b5937696c3183604051611d7b919061264d565b60405180910390a3505050565b611d93848484611567565b611d9f8484848461207f565b611dde576040517f08c379a0000000000000000000000000000000000000000000000000000000008152600401611dd5906139c9565b60405180910390fd5b50505050565b606060098054611df390612cd9565b80601f0160208091040260200160405190810160405280929190818152602001828054611e1f90612cd9565b8015611e6c5780601f10611e4157610100808354040283529160200191611e6c565b820191906000526020600020905b815481529060010190602001808311611e4f57829003601f168201915b5050505050905090565b606060006001611e8584612206565b01905060008167ffffffffffffffff811115611ea457611ea361284f565b5b6040519080825280601f01601f191660200182016040528015611ed65781602001600182028036833780820191505090505b509050600082602001820190505b600115611f39578080600190039150507f3031323334353637383961626364656600000000000000000000000000000000600a86061a8153600a8581611f2d57611f2c6139e9565b5b04945060008503611ee4575b819350505050919050565b60008073ffffffffffffffffffffffffffffffffffffffff16611f6683611ac0565b73ffffffffffffffffffffffffffffffffffffffff1614159050919050565b611f8d610c59565b611fcc576040517f08c379a0000000000000000000000000000000000000000000000000000000008152600401611fc390613a64565b60405180910390fd5b565b611fd6610c59565b15612016576040517f08c379a000000000000000000000000000000000000000000000000000000000815260040161200d90613ad0565b60405180910390fd5b565b50505050565b50505050565b61202e8383612359565b61203b600084848461207f565b61207a576040517f08c379a0000000000000000000000000000000000000000000000000000000008152600401612071906139c9565b60405180910390fd5b505050565b60006120a08473ffffffffffffffffffffffffffffffffffffffff16612576565b156121f9578373ffffffffffffffffffffffffffffffffffffffff1663150b7a026120c96112cd565b8786866040518563ffffffff1660e01b81526004016120eb9493929190613b45565b6020604051808303816000875af192505050801561212757506040513d601f19601f820116820180604052508101906121249190613ba6565b60015b6121a9573d8060008114612157576040519150601f19603f3d011682016040523d82523d6000602084013e61215c565b606091505b5060008151036121a1576040517f08c379a0000000000000000000000000000000000000000000000000000000008152600401612198906139c9565b60405180910390fd5b805181602001fd5b63150b7a0260e01b7bffffffffffffffffffffffffffffffffffffffffffffffffffffffff1916817bffffffffffffffffffffffffffffffffffffffffffffffffffffffff1916149150506121fe565b600190505b949350505050565b600080600090507a184f03e93ff9f4daa797ed6e38ed64bf6a1f0100000000000000008310612264577a184f03e93ff9f4daa797ed6e38ed64bf6a1f010000000000000000838161225a576122596139e9565b5b0492506040810190505b6d04ee2d6d415b85acef810000000083106122a1576d04ee2d6d415b85acef81000000008381612297576122966139e9565b5b0492506020810190505b662386f26fc1000083106122d057662386f26fc1000083816122c6576122c56139e9565b5b0492506010810190505b6305f5e10083106122f9576305f5e10083816122ef576122ee6139e9565b5b0492506008810190505b612710831061231e576127108381612314576123136139e9565b5b0492506004810190505b606483106123415760648381612337576123366139e9565b5b0492506002810190505b600a8310612350576001810190505b80915050919050565b600073ffffffffffffffffffffffffffffffffffffffff168273ffffffffffffffffffffffffffffffffffffffff16036123c8576040517f08c379a00000000000000000000000000000000000000000000000000000000081526004016123bf90613c1f565b60405180910390fd5b6123d181611f44565b15612411576040517f08c379a000000000000000000000000000000000000000000000000000000000815260040161240890613c8b565b60405180910390fd5b61241f600083836001612018565b61242881611f44565b15612468576040517f08c379a000000000000000000000000000000000000000000000000000000000815260040161245f90613c8b565b60405180910390fd5b6001600360008473ffffffffffffffffffffffffffffffffffffffff1673ffffffffffffffffffffffffffffffffffffffff16815260200190815260200160002060008282540192505081905550816002600083815260200190815260200160002060006101000a81548173ffffffffffffffffffffffffffffffffffffffff021916908373ffffffffffffffffffffffffffffffffffffffff160217905550808273ffffffffffffffffffffffffffffffffffffffff16600073ffffffffffffffffffffffffffffffffffffffff167fddf252ad1be2c89b69c2b068fc378daa952ba7f163c4a11628f55a4df523b3ef60405160405180910390a461257260008383600161201e565b5050565b6000808273ffffffffffffffffffffffffffffffffffffffff163b119050919050565b6000604051905090565b600080fd5b600080fd5b60007fffffffff0000000000000000000000000000000000000000000000000000000082169050919050565b6125e2816125ad565b81146125ed57600080fd5b50565b6000813590506125ff816125d9565b92915050565b60006020828403121561261b5761261a6125a3565b5b6000612629848285016125f0565b91505092915050565b60008115159050919050565b61264781612632565b82525050565b6000602082019050612662600083018461263e565b92915050565b600081519050919050565b600082825260208201905092915050565b60005b838110156126a2578082015181840152602081019050612687565b60008484015250505050565b6000601f19601f8301169050919050565b60006126ca82612668565b6126d48185612673565b93506126e4818560208601612684565b6126ed816126ae565b840191505092915050565b6000602082019050818103600083015261271281846126bf565b905092915050565b6000819050919050565b61272d8161271a565b811461273857600080fd5b50565b60008135905061274a81612724565b92915050565b600060208284031215612766576127656125a3565b5b60006127748482850161273b565b91505092915050565b600073ffffffffffffffffffffffffffffffffffffffff82169050919050565b60006127a88261277d565b9050919050565b6127b88161279d565b82525050565b60006020820190506127d360008301846127af565b92915050565b6127e28161279d565b81146127ed57600080fd5b50565b6000813590506127ff816127d9565b92915050565b6000806040838503121561281c5761281b6125a3565b5b600061282a858286016127f0565b925050602061283b8582860161273b565b9150509250929050565b600080fd5b600080fd5b7f4e487b7100000000000000000000000000000000000000000000000000000000600052604160045260246000fd5b612887826126ae565b810181811067ffffffffffffffff821117156128a6576128a561284f565b5b80604052505050565b60006128b9612599565b90506128c5828261287e565b919050565b600067ffffffffffffffff8211156128e5576128e461284f565b5b6128ee826126ae565b9050602081019050919050565b82818337600083830152505050565b600061291d612918846128ca565b6128af565b9050828152602081018484840111156129395761293861284a565b5b6129448482856128fb565b509392505050565b600082601f83011261296157612960612845565b5b813561297184826020860161290a565b91505092915050565b6000602082840312156129905761298f6125a3565b5b600082013567ffffffffffffffff8111156129ae576129ad6125a8565b5b6129ba8482850161294c565b91505092915050565b6129cc81612632565b81146129d757600080fd5b50565b6000813590506129e9816129c3565b92915050565b600060208284031215612a0557612a046125a3565b5b6000612a13848285016129da565b91505092915050565b612a258161271a565b82525050565b6000602082019050612a406000830184612a1c565b92915050565b600080600060608486031215612a5f57612a5e6125a3565b5b6000612a6d868287016127f0565b9350506020612a7e868287016127f0565b9250506040612a8f8682870161273b565b9150509250925092565b60008060408385031215612ab057612aaf6125a3565b5b6000612abe8582860161273b565b9250506020612acf858286016127f0565b9150509250929050565b600060208284031215612aef57612aee6125a3565b5b6000612afd848285016127f0565b91505092915050565b60008060408385031215612b1d57612b1c6125a3565b5b6000612b2b858286016127f0565b9250506020612b3c858286016129da565b9150509250929050565b600067ffffffffffffffff821115612b6157612b6061284f565b5b612b6a826126ae565b9050602081019050919050565b6000612b8a612b8584612b46565b6128af565b905082815260208101848484011115612ba657612ba561284a565b5b612bb18482856128fb565b509392505050565b600082601f830112612bce57612bcd612845565b5b8135612bde848260208601612b77565b91505092915050565b60008060008060808587031215612c0157612c006125a3565b5b6000612c0f878288016127f0565b9450506020612c20878288016127f0565b9350506040612c318782880161273b565b925050606085013567ffffffffffffffff811115612c5257612c516125a8565b5b612c5e87828801612bb9565b91505092959194509250565b60008060408385031215612c8157612c806125a3565b5b6000612c8f858286016127f0565b9250506020612ca0858286016127f0565b9150509250929050565b7f4e487b7100000000000000000000000000000000000000000000000000000000600052602260045260246000fd5b60006002820490506001821680612cf157607f821691505b602082108103612d0457612d03612caa565b5b50919050565b7f4552433732313a20617070726f76616c20746f2063757272656e74206f776e6560008201527f7200000000000000000000000000000000000000000000000000000000000000602082015250565b6000612d66602183612673565b9150612d7182612d0a565b604082019050919050565b60006020820190508181036000830152612d9581612d59565b9050919050565b7f4552433732313a20617070726f76652063616c6c6572206973206e6f7420746f60008201527f6b656e206f776e6572206f7220617070726f76656420666f7220616c6c000000602082015250565b6000612df8603d83612673565b9150612e0382612d9c565b604082019050919050565b60006020820190508181036000830152612e2781612deb565b9050919050565b60008190508160005260206000209050919050565b60006020601f8301049050919050565b600082821b905092915050565b600060088302612e907fffffffffffffffffffffffffffffffffffffffffffffffffffffffffffffffff82612e53565b612e9a8683612e53565b95508019841693508086168417925050509392505050565b6000819050919050565b6000612ed7612ed2612ecd8461271a565b612eb2565b61271a565b9050919050565b6000819050919050565b612ef183612ebc565b612f05612efd82612ede565b848454612e60565b825550505050565b600090565b612f1a612f0d565b612f25818484612ee8565b505050565b5b81811015612f4957612f3e600082612f12565b600181019050612f2b565b5050565b601f821115612f8e57612f5f81612e2e565b612f6884612e43565b81016020851015612f77578190505b612f8b612f8385612e43565b830182612f2a565b50505b505050565b600082821c905092915050565b6000612fb160001984600802612f93565b1980831691505092915050565b6000612fca8383612fa0565b9150826002028217905092915050565b612fe382612668565b67ffffffffffffffff811115612ffc57612ffb61284f565b5b6130068254612cd9565b613011828285612f4d565b600060209050601f8311600181146130445760008415613032578287015190505b61303c8582612fbe565b8655506130a4565b601f19841661305286612e2e565b60005b8281101561307a57848901518255600182019150602085019450602081019050613055565b868310156130975784890151613093601f891682612fa0565b8355505b6001600288020188555050505b505050505050565b7f4e487b7100000000000000000000000000000000000000000000000000000000600052601160045260246000fd5b60006130e68261271a565b91506130f18361271a565b9250828203905081811115613109576131086130ac565b5b92915050565b7f4552433732313a2063616c6c6572206973206e6f7420746f6b656e206f776e6560008201527f72206f7220617070726f76656400000000000000000000000000000000000000602082015250565b600061316b602d83612673565b91506131768261310f565b604082019050919050565b6000602082019050818103600083015261319a8161315e565b9050919050565b7f4552433732314275726e61626c653a2063616c6c6572206973206e6f74206f7760008201527f6e6572206e6f7220617070726f76656400000000000000000000000000000000602082015250565b60006131fd603083612673565b9150613208826131a1565b604082019050919050565b6000602082019050818103600083015261322c816131f0565b9050919050565b600061323e8261271a565b91507fffffffffffffffffffffffffffffffffffffffffffffffffffffffffffffffff82036132705761326f6130ac565b5b600182019050919050565b7f4552433732313a20696e76616c696420746f6b656e2049440000000000000000600082015250565b60006132b1601883612673565b91506132bc8261327b565b602082019050919050565b600060208201905081810360008301526132e0816132a4565b9050919050565b7f4552433732313a2061646472657373207a65726f206973206e6f74206120766160008201527f6c6964206f776e65720000000000000000000000000000000000000000000000602082015250565b6000613343602983612673565b915061334e826132e7565b604082019050919050565b6000602082019050818103600083015261337281613336565b9050919050565b7f4d696e74206973206e6f74206163746976650000000000000000000000000000600082015250565b60006133af601283612673565b91506133ba82613379565b602082019050919050565b600060208201905081810360008301526133de816133a2565b9050919050565b60006133f08261271a565b91506133fb8361271a565b92508282026134098161271a565b915082820484148315176134205761341f6130ac565b5b5092915050565b7f596f752073656e742074686520696e636f727265637420616d6f756e74206f6660008201527f2045544800000000000000000000000000000000000000000000000000000000602082015250565b6000613483602483612673565b915061348e82613427565b604082019050919050565b600060208201905081810360008301526134b281613476565b9050919050565b600081905092915050565b60006134cf82612668565b6134d981856134b9565b93506134e9818560208601612684565b80840191505092915050565b600061350182856134c4565b915061350d82846134c4565b91508190509392505050565b7f4f776e61626c653a206e6577206f776e657220697320746865207a65726f206160008201527f6464726573730000000000000000000000000000000000000000000000000000602082015250565b6000613575602683612673565b915061358082613519565b604082019050919050565b600060208201905081810360008301526135a481613568565b9050919050565b7f4f776e61626c653a2063616c6c6572206973206e6f7420746865206f776e6572600082015250565b60006135e1602083612673565b91506135ec826135ab565b602082019050919050565b60006020820190508181036000830152613610816135d4565b9050919050565b7f4552433732313a207472616e736665722066726f6d20696e636f72726563742060008201527f6f776e6572000000000000000000000000000000000000000000000000000000602082015250565b6000613673602583612673565b915061367e82613617565b604082019050919050565b600060208201905081810360008301526136a281613666565b9050919050565b7f4552433732313a207472616e7366657220746f20746865207a65726f2061646460008201527f7265737300000000000000000000000000000000000000000000000000000000602082015250565b6000613705602483612673565b9150613710826136a9565b604082019050919050565b60006020820190508181036000830152613734816136f8565b9050919050565b7f416464726573733a20696e73756666696369656e742062616c616e6365000000600082015250565b6000613771601d83612673565b915061377c8261373b565b602082019050919050565b600060208201905081810360008301526137a081613764565b9050919050565b600081905092915050565b50565b60006137c26000836137a7565b91506137cd826137b2565b600082019050919050565b60006137e3826137b5565b9150819050919050565b7f416464726573733a20756e61626c6520746f2073656e642076616c75652c207260008201527f6563697069656e74206d61792068617665207265766572746564000000000000602082015250565b6000613849603a83612673565b9150613854826137ed565b604082019050919050565b600060208201905081810360008301526138788161383c565b9050919050565b7f5265656e7472616e637947756172643a207265656e7472616e742063616c6c00600082015250565b60006138b5601f83612673565b91506138c08261387f565b602082019050919050565b600060208201905081810360008301526138e4816138a8565b9050919050565b7f4552433732313a20617070726f766520746f2063616c6c657200000000000000600082015250565b6000613921601983612673565b915061392c826138eb565b602082019050919050565b6000602082019050818103600083015261395081613914565b9050919050565b7f4552433732313a207472616e7366657220746f206e6f6e20455243373231526560008201527f63656976657220696d706c656d656e7465720000000000000000000000000000602082015250565b60006139b3603283612673565b91506139be82613957565b604082019050919050565b600060208201905081810360008301526139e2816139a6565b9050919050565b7f4e487b7100000000000000000000000000000000000000000000000000000000600052601260045260246000fd5b7f5061757361626c653a206e6f7420706175736564000000000000000000000000600082015250565b6000613a4e601483612673565b9150613a5982613a18565b602082019050919050565b60006020820190508181036000830152613a7d81613a41565b9050919050565b7f5061757361626c653a2070617573656400000000000000000000000000000000600082015250565b6000613aba601083612673565b9150613ac582613a84565b602082019050919050565b60006020820190508181036000830152613ae981613aad565b9050919050565b600081519050919050565b600082825260208201905092915050565b6000613b1782613af0565b613b218185613afb565b9350613b31818560208601612684565b613b3a816126ae565b840191505092915050565b6000608082019050613b5a60008301876127af565b613b6760208301866127af565b613b746040830185612a1c565b8181036060830152613b868184613b0c565b905095945050505050565b600081519050613ba0816125d9565b92915050565b600060208284031215613bbc57613bbb6125a3565b5b6000613bca84828501613b91565b91505092915050565b7f4552433732313a206d696e7420746f20746865207a65726f2061646472657373600082015250565b6000613c09602083612673565b9150613c1482613bd3565b602082019050919050565b60006020820190508181036000830152613c3881613bfc565b9050919050565b7f4552433732313a20746f6b656e20616c7265616479206d696e74656400000000600082015250565b6000613c75601c83612673565b9150613c8082613c3f565b602082019050919050565b60006020820190508181036000830152613ca481613c68565b905091905056fea2646970667358221220167f32d71adaeba2f771c465aa125e24022ae81b566e48760bb2b57e601bcc7a64736f6c63430008130033",
  "linkReferences": {},
  "deployedLinkReferences": {}
}